:020000001028C6
:10000800FE00030EF1000408F2000A08F300831250
:1000180003137F08F40017281128AA01AB01AC01CB
:10002800AD0183017C280B1D71280B110130AC0731
:100038000318AD0A0030AD0700302D024030031917
:100048002C02031C7128AC01AD010130AA0703186A
:10005800AB0A0030AB072B08803AFF0080307F02E4
:10006800031D38280A302A02031C4128C0208312A5
:100078000313AA01AB018B127128FC30F000700841
:1000880083120313A0006030F0007008A100DA307A
:10009800F0007008A200F230F0007008A30066308B
:1000A800F0007008A400B630F0007008A500BE305B
:1000B800F0007008A600E030F0007008A700FE30DD
:1000C800F0007008A800E630F0007008A9002A08BF
:1000D800203E84008313000886007408FF0073081C
:1000E8008A0072088400710E8300FE0E7E0E0900DD
:1000F8000730831203139F000E3083160313850005
:1001080086018312031305100C3081008B170B171F
:100118008B120B1183160313811201128111011422
:100128008114011583120313851CA3288230F6005D
:10013800DD30F500F50B9E28F60B9E28A3288312C8
:100148000313851DB1288B168230F600DD30F500CB
:10015800F50BAC28F60BAC28B12883120313051D48
:1001680096288B128230F600DD30F500F50BBA28A0
:10017800F60BBA28BF28962883120313051CC62835
:08018800051008000514080031
:02400E0058FF59
:00000001FF
