:020000001028C6
:10000800FE00030EF0000408F1000A08F200831253
:1000180003137F08F30033281128F601F701830141
:1000280015288316031386018312031306100C3058
:1000380081008B170B178B160B1183160313811274
:10004800011281110114811401158230F500DD308F
:10005800F400F40B2D28F50B2D28322829280B1D28
:1000680044280B110130F6070318F70A0030F70788
:10007800103076067704031D44285120F601F70155
:10008800730883120313FF0072088A007108840042
:10009800700E8300FE0E7E0E090083120313061CE9
:0A00A800572806100800061408008F
:02400E0058FF59
:00000001FF
