:02000000F62FD9
:100DD2000134003400340034F301F4017408803A21
:100DE200F2007108803A7202031DF92E7008730234
:100DF2000318092F83120313061186148610730831
:100E0200013EF30074080318013E003EF400EF2E89
:100E120083120313861586110800413083160313CB
:100E220086000730831203139F001830B000003091
:100E3200B1003108F1003008F000ED2683120313EF
:100E4200051D1F2F3108A8003008A70037270230E0
:100E520083120313AF000430AE00BA30AD00AD0B05
:100E6200302FAE0B302FAF0B302F1F2F83120313F7
:100E7200AB01AC012C08803AA9002808803A29026B
:100E8200031D452F27082B0203185D2FB32783125A
:100E920003132008A900A90E06082906EF3929061E
:100EA2008600861586112B08013EAB002C0803181C
:100EB200013E003EAC003B2F8312031386168612BE
:100EC200343083120313AA00F130A900A90B672F53
:100ED200AA0B672F0000831203132808F1002708CA
:100EE200F000ED2608000030FC000030FB0000306E
:100EF200FA000030F900701C922F7408F907750887
:100F020003110318013E031DFA07760803110318A3
:100F1200013E031DFB07770803110318013E031D61
:100F2200FC070130F8000310F40DF50DF60DF70D76
:100F3200F80B942F01300310F30CF20CF10CF00CAF
:100F4200FF3E031D9C2F7308720471047004031D7D
:100F52007C2F7C08F3007B08F2007A08F100790804
:100F6200F0000800831203133508F3003408F2007E
:100F72003308F1003208F0004130F700C630F600C5
:100F82004E30F5006D30F40074277308831203139A
:100F9200B5007208B4007108B3007008B2003930AD
:100FA200B207303003183130B30700300318013074
:100FB200B407003003180130B5073208A200330825
:100FC200A3003408A4003508A5001030A600250DA2
:100FD200A50CA40CA30CA20CA60BE82FFF30220533
:100FE200A0007F302305A1000800E926B200EA260E
:0E0FF200B300EB26B400EC26B50083010E2FF1
:02400E0058FF59
:00000001FF
