:020000001028C6
:10000800FE00030E83120313AB000408AC000A08B9
:10001800AD007F08AE001F281128F001F101F201A0
:10002800F301F401F50183120313B401B501B6011C
:10003800B7018301F0288C1E7D281A08A000A101B1
:10004800A201A3012308B7002208B6002108B500C1
:100058002008B400981C3228181218167408750461
:100068000319702886170130F4020030031CF503C9
:10007800F5027008A0007108A1007208A2007308B8
:10008800A300340AA4000130A5000030A6004F28C0
:100098000310A50DA60DA40B4C282508A7002608BB
:1000A800A8000030A81BFF30A900AA002708A00458
:1000B8002808A1042908A2042A08A3042308F30095
:1000C8002208F2002108F1002008F00074087504E5
:1000D800031D7D288A207D2806170030F300003094
:1000E800F2000030F1000030F0003508F500340867
:1000F800F400831203132E08FF002D088A002C0831
:1001080084002B0E8300FE0E7E0E0900FA01FB010F
:100118007B08803AFF0080307F02031D95283D3020
:100128007A020318C8287008F6007108F7007208E8
:10013800F8007308F9007A03FF3A3D3E013EA9280A
:100148000310F90CF80CF70CF60CFF3E031DA4285D
:10015800761CB228831203130514B52883120313DF
:100168000510851485100130FA070318FB0A0030C2
:10017800FB077B08803AFF0080307F02031DC628FA
:100188003D307A02031C97288312031305150511C5
:10019800080083120313B201B3013308803AB10097
:1001A8003008803A3102031DDB282F083202031879
:1001B800EB28831203130510851485103208013EBD
:1001C800B20033080318013E003EB300D128831261
:1001D80003130515051108000730831203139F0048
:1001E8008316031385013F30860083120313861399
:1001F800061308218B170B173D3083120313AF002A
:100208000030B000CD2007290C3083160313990065
:1002180018151812831203139817181698128316B4
:1002280003130C128C161813831203131813831656
:08023800031398129816080048
:02400E0058FF59
:00000001FF
