:020000001028C6
:10000800FE00030E83120313AC000408AD000A08B7
:10001800AE007F08AF002D281128F021BA00F12189
:10002800BB00F221BC00F321BD00F421BE00F52184
:10003800BF00F621C000F721C100C201C301C401FD
:10004800C501F701F801F901FA01FB01FC0183017F
:100058008C298C1EB628F82183120313A000A10155
:100068002008FB002108FC0008308506FE307B06CE
:100078007C04031D4128C201C3014208430403193B
:10008800AC28440845040319A6280130C4020030EE
:10009800031CC503C50277087804031D58287C088B
:1000A800F8007B08F700AC28770E0F39F900780EB6
:1000B800F039F904780E0F39FA007908A000200702
:1000C8003A3E840083130008A100840A0008A200B5
:1000D8007908A30003300310A30DFF3E031D6F280A
:1000E8000310230DFF3A013E7707A400A40A7C08F9
:1000F800A6007B08A50083280310A50DA60DA40B58
:10010800802825082604031D8B2801308C28003000
:10011800A700A80121082705A90022082805AA0088
:100128007908AB002B073A3E840029088000840A2E
:100138002A088000F701F80144084504031DAC288B
:100148002A21AC287C0883120313C5007B08C4004D
:100158007B0A7C04031DB628013083120313C200F6
:100168000030C300831203132F08FF002E088A00F3
:100178002D0884002C0E8300FE0E7E0E09008312CB
:100188000313B301B4013408803AFF0080307F02C2
:10019800031DD02805303302031808008312031307
:1001A800051E21298515063083120313B20013306A
:1001B800B100AD30B000B00BDF28B10BDF28B20BB7
:1001C800DF2800008312031385113408803AFF00EA
:1001D80080307F02031DF22804303302031C2129DA
:1001E80083120313C401C501B501B6013608803A6C
:1001F800FF0080307F02031D0329043035020318F5
:100208002129831203133508B00030073A3E8400D1
:1002180083138001840A80010130B5070318B60AE8
:100228000030B6073608803AFF0080307F02031D91
:100238001F2904303502031C0529013083120313DA
:10024800B3070318B40A0030B407C728F301F40150
:100258007408803AFF0080307F02031D352904307E
:10026800730203188729F501F6017608803AFF0022
:1002780080307F02031D4229103075020318762949
:100288007308F00070073A3E840083130008F100F9
:10029800840A0008F2007503FF3A103E013E572910
:1002A8000310F20CF10CFF3E031D5429711860294C
:1002B800831203130514632983120313051085148D
:1002C80085100130F5070318F60A0030F60776089E
:1002D800803AFF0080307F02031D742910307502B8
:1002E800031C44290130F3070318F40A0030F4070B
:1002F8007408803AFF0080307F02031D852904308E
:100308007302031C3729831203130515051108000E
:100318000730831203139F001030831603138500E0
:10032800831203138511D8218B170B1740308312C2
:100338000313B0000030B100B52183120313051E6A
:10034800A129C3200D3083120313B900AF30B800C0
:10035800B630B700B70BAE29B80BAE29B90BAE292A
:10036800A12983120313B301B4013408803AB200FF
:100378003108803A3202031DC329300833020318BA
:10038800D329831203130510851485103308013E01
:10039800B30034080318013E003EB400B9298312A3
:1003A800031305150511080040308316031399003F
:1003B8001815181283120313981718169812831613
:1003C80003130C128C1618138312031318138316B5
:1003D8000313981298160800FF34FF34FF34FF34D3
:1003E800FF34FF34FF34FF3483120313981CFE29B3
:0803F800181218161A0808007B
:02400E004AFF67
:00000001FF
