:020000001028C6
:10000800FE00030E83120313AA000408AB000A08BB
:10001800AC007F08AD0023281128F701F801F90189
:10002800FA01FB01FC0183120313B801B901BA01FB
:10003800BB01BC01BD01BE01BF0183015F298C1E4C
:100048008128C42183120313A000A1012008F7000E
:100058002108F8000830850679087A0403197D28F4
:10006800770E0F39FB00780EF039FB04780E0F3944
:10007800FC000130F9020030031CFA03FA027B0885
:10008800A0002007383E840083130008A100840ADA
:100098000008A2007B08A30003300310A30DFF3E55
:1000A800031D51280310230DFF3A013E7707A400D2
:1000B800A40A0130A5000030A60065280310A50D8C
:1000C800A60DA40B622821082504A70022082604EF
:1000D800A8007B08A9002907383E8400270880006B
:1000E800840A2808800079087A04031D81288E2054
:1000F80081287808FA007708F900831203132D087D
:10010800FF002C088A002B0884002A0E8300FE0EAC
:100118007E0E0900F501F6017608803AFF0080306E
:100128007F02031D9928043075020318F428F3018F
:10013800F4017408803AFF0080307F02031DA6286E
:10014800103073020318DA287508F0007007383E7B
:10015800840083130008F100840A0008F200730386
:10016800FF3A103E013EBB280310F20CF10CFF3E93
:10017800031DB828711CC428831203130514C7284B
:10018800831203130510851485100130F307031833
:10019800F40A0030F4077408803AFF0080307F02C8
:1001A800031DD82810307302031CA8287508F00016
:1001B8007007383E840083138001840A800101306F
:1001C800F5070318F60A0030F6077608803AFF00AC
:1001D80080307F02031DF22804307502031C9B281F
:1001E8008312031305150511080083120313B101C7
:1001F800B2013208803AFF0080307F02031D0629D1
:10020800053031020318080083120313051E56290E
:100218008515023083120313B0000430AF00BA30E2
:10022800AE00AE0B1529AF0B1529B00B152983129B
:10023800031385113208803AFF0080307F02031DC6
:10024800272904303102031C5629F901FA018312C7
:100258000313B301B4013408803AFF0080307F02F1
:10026800031D382904303302031856298312031357
:100278003308AE002E07383E840083138001840AB9
:1002880080010130B3070318B40A0030B4073408FA
:10029800803AFF0080307F02031D54290430330266
:1002A800031C3A29013083120313B1070318B20A59
:1002B8000030B207FD280730831203139F00103067
:1002C800831603138500831203138511AC218B1742
:1002D8000B17403083120313AE000030AF008921A2
:1002E80083120313051E7429F920033083120313A4
:1002F800B7008A30B6005530B500B50B8129B60B6A
:100308008129B70B81290000742983120313B101D5
:10031800B2013208803AB0002F08803A3002031D3B
:1003280097292E0831020318A729831203130510F1
:10033800851485103108013EB10032080318013ECA
:10034800003EB2008D29831203130515051108001C
:100358000C3083160313990018151812831203130F
:10036800981718169812831603130C128C16181364
:100378008312031318138316031398129816080090
:1003880083120313981CCA29181218161A08080091
:02400E0058FF59
:00000001FF
