:020000001028C6
:10000800FE00030E83120313AA000408AB000A08BB
:10001800AC007F08AD001C281128773084007D30A3
:10002800CF218313383084004230CF2183016A29DD
:100038008C1E8C28D72183120313A000A10120084D
:10004800F7002108F80008308506770A7804031DB0
:1000580031280130C0000030C10077087804031D42
:100068003728C001C1014008410403198C287908C8
:100078007A0403198828770E0F39FB00780EF039B7
:10008800FB04780E0F39FC000130F9020030031C24
:10009800FA03FA027B08A0002007383E8400831385
:1000A8000008A100840A0008A2007B08A30003300E
:1000B8000310A30DFF3E031D5C280310230DFF3A18
:1000C800013E7707A400A40A0130A5000030A6006D
:1000D80070280310A50DA60DA40B6D282108250472
:1000E800A70022082604A8007B08A9002907383E93
:1000F800840027088000840A2808800079087A0488
:10010800031D8C2899208C287808FA007708F900B4
:10011800831203132D08FF002C088A002B08840083
:100128002A0E8300FE0E7E0E0900F501F601760800
:10013800803AFF0080307F02031DA4280430750236
:100148000318FF28F301F4017408803AFF00803097
:100158007F02031DB128103073020318E5287508C3
:10016800F0007007383E840083130008F100840A09
:100178000008F2007303FF3A103E013EC628031040
:10018800F20CF10CFF3E031DC328711CCF2883120B
:1001980003130514D2288312031305108514851040
:1001A8000130F3070318F40A0030F4077408803AA2
:1001B800FF0080307F02031DE32810307302031C08
:1001C800B3287508F0007007383E84008313800157
:1001D800840A80010130F5070318F60A0030F60793
:1001E8007608803AFF0080307F02031DFD28043026
:1001F8007502031CA62883120313051505110800B0
:1002080083120313B101B2013208803AFF00803033
:100218007F02031D112905303102031808008312DB
:100228000313051E61298515023083120313B000DC
:100238000430AF00BA30AE00AE0B2029AF0B202936
:10024800B00B20298312031385113208803AFF006E
:1002580080307F02031D322904303102031C6129DA
:10026800F901FA0183120313B301B4013408803A87
:10027800FF0080307F02031D432904303302031836
:100288006129831203133308AE002E07383E840019
:1002980083138001840A80010130B3070318B40A6C
:1002A8000030B4073408803AFF0080307F02031D15
:1002B8005F2904303302031C4529013083120313DC
:1002C800B1070318B20A0030B207082907308312B1
:1002D80003139F0010308316031385008312031342
:1002E8008511B7218B170B17403083120313AE000B
:1002F8000030AF00942183120313051E7F290421C7
:10030800033083120313B7008A30B6005530B500A6
:10031800B50B8C29B60B8C29B70B8C2900007F29CB
:1003280083120313B101B2013208803AB0002F08DA
:10033800803A3002031DA2292E0831020318B2297F
:10034800831203130510851485103108013EB1008E
:1003580032080318013E003EB200982983120313A5
:100368000515051108000C3083160313990018159C
:10037800181283120313981718169812831603136A
:100388000C128C16181383120313181383160313F5
:1003980098129816080064008001840A040603195C
:1003A80000340406D02983120313981CDD2918127F
:0603B80018161A080800E7
:02400E0058FF59
:00000001FF
