:020000001028C6
:10000800FE00030EF8000408F9000A08FA0083123B
:1000180003137F08FB007E281128F001F101F2018B
:10002800F301F401F50183019228F601F70177083D
:10003800803AFF0080307F02031D24283D3076027D
:1000480003183C2883120313051485148510013006
:10005800F6070318F70A0030F7077708803AFF0019
:1000680080307F02031D3A283D307602031C262883
:100078008312031305150511080083120313A30146
:10008800A4012408803AA2002108803A2202031D14
:100098004F282008230203185F2883120313051032
:1000A800851485102308013EA30024080318013E87
:1000B800003EA40045288312031305150511080006
:1000C800831603130611861419309900181518128F
:1000D80083120313981718169812831603130C1219
:1000E8008C1618138312031318138316031398120C
:1000F800981608008C1E8528981C84281812181633
:1001080019207B0883120313FF007A088A007908F4
:100118008400780E8300FE0E7E0E090007308312DD
:1001280003139F0083160313850164208B170B1795
:100138003D3083120313A0000030A1004120A32802
:02400E0058FF59
:00000001FF
