:020000001028C6
:10000800FE00030E83120313AA000408AB000A08BB
:10001800AC007F08AD0021281128F701F801F9018B
:10002800FA01FB01FC01B301B401B501B601B70146
:10003800B801B901BA01830132298C1E7F284721F2
:1000480083120313A000A1012008F7002108F8007B
:100058000830850679087A0403197B28770E0F394A
:10006800FB00780EF039FB04780E0F39FC000130E4
:10007800F9020030031CFA03FA027B08A0002007EB
:10008800333E840083130008A100840A0008A200FC
:100098007B08A30003300310A30DFF3E031D4F2868
:1000A8000310230DFF3A013E7707A400A40A01308C
:1000B800A5000030A60063280310A50DA60DA40B0B
:1000C800602821082504A70022082604A8007B0828
:1000D800A9002907333E840027088000840A2808DD
:1000E800800079087A04031D7F288C207F287808EF
:1000F800FA007708F900831203132D08FF002C0873
:100108008A002B0884002A0E8300FE0E7E0E09004A
:10011800F501F6017608803AFF0080307F02031D62
:100128009728043075020318F228F301F4017408C3
:10013800803AFF0080307F02031DA428103073022C
:100148000318D8287508F0007007333E840083131D
:100158000008F100840A0008F2007303FF3A103E19
:10016800013EB9280310F20CF10CFF3E031DB6281E
:10017800711CC228831203130514C52883120313A4
:100188000510851485100130F3070318F40A0030B0
:10019800F4077408803AFF0080307F02031DD628D8
:1001A80010307302031CA6287508F0007007333E50
:1001B800840083138001840A80010130F507031845
:1001C800F60A0030F6077608803AFF0080307F0292
:1001D800031DF02804307502031C992883120313A9
:1001E80005150511080083120313B101B201320885
:1001F800803AB0002F08803A3002031D05292E08E6
:10020800310203181529831203130510851485106C
:100218003108013EB10032080318013E003EB20029
:10022800FB28831203130515051108000C308316EB
:100238000313990018151812831203139817181628
:100248009812831603130C128C16181383120313B7
:100258001813831603139812981608000730831290
:1002680003139F008316031385018312031385115B
:100278001A218B170B17403083120313AE0000307E
:10028800AF00F720462983120313981C4D29181232
:0602980018161A08080008
:02400E0058FF59
:00000001FF
