:020000001028C6
:10000800FE00030E83120313AA000408AB000A08BB
:10001800AC007F08AD001C281128773084007D30A3
:10002800D1218313383084004230D12183016D29D6
:100038008C1E8E28D92183120313A000A101200849
:10004800F7002108F8000830850677087804031DB2
:100058002F28C001C10140084104031984287908E8
:100068007A0403198028770E0F39FB00780EF039CF
:10007800FB04780E0F39FC000130F9020030031C34
:10008800FA03FA027B08A0002007383E8400831395
:100098000008A100840A0008A2007B08A30003301E
:1000A8000310A30DFF3E031D54280310230DFF3A30
:1000B800013E7707A400A40A0130A5000030A6007D
:1000C80068280310A50DA60DA40B65282108250492
:1000D800A70022082604A8007B08A9002907383EA3
:1000E800840027088000840A2808800079087A0498
:1000F800031D84289B2084287808FA007708F900D3
:10010800770A7804031D8E28013083120313C00078
:100118000030C100831203132D08FF002C088A0049
:100128002B0884002A0E8300FE0E7E0E0900F501BE
:10013800F6017608803AFF0080307F02031DA6286A
:100148000430750203180129F301F4017408803A98
:10015800FF0080307F02031DB3281030730203189C
:10016800E7287508F0007007383E840083130008FC
:10017800F100840A0008F2007303FF3A103E013EC2
:10018800C8280310F20CF10CFF3E031DC528711C92
:10019800D128831203130514D428831203130510DE
:1001A800851485100130F3070318F40A0030F407AA
:1001B8007408803AFF0080307F02031DE528103064
:1001C8007302031CB5287508F0007007383E8400D8
:1001D80083138001840A80010130F5070318F60AA9
:1001E8000030F6077608803AFF0080307F02031D52
:1001F800FF2804307502031CA82883120313051571
:100208000511080083120313B101B2013208803AC4
:10021800FF0080307F02031D1329053031020318C7
:10022800080083120313051E6429851506308312FE
:100238000313B0001330AF00AD30AE00AE0B22296F
:10024800AF0B2229B00B222900008312031385115A
:100258003208803AFF0080307F02031D35290430C0
:100268003102031C6429F901FA0183120313B30153
:10027800B4013408803AFF0080307F02031D46290C
:100288000430330203186429831203133308AE00C1
:100298002E07383E840083138001840A80010130D0
:1002A800B3070318B40A0030B4073408803AFF00D3
:1002B80080307F02031D622904303302031C482961
:1002C800013083120313B1070318B20A0030B207D2
:1002D8000A290730831203139F0010308316031373
:1002E8008500831203138511B9218B170B17403032
:1002F80083120313AE000030AF009621831203135C
:10030800051E822906210D3083120313B700AF3072
:10031800B600B630B500B50B8F29B60B8F29B70BD1
:100328008F29822983120313B101B2013208803A5E
:10033800B0002F08803A3002031DA4292E0831028C
:100348000318B42983120313051085148510310886
:10035800013EB10032080318013E003EB2009A295E
:100368008312031305150511080040308316031383
:100378009900181518128312031398171816981253
:10038800831603130C128C161813831203131813F5
:100398008316031398129816080064008001840AD3
:1003A8000406031900340406D22983120313981C87
:0A03B800DF29181218161A080800B1
:02400E004AFF67
:00000001FF
