:020000001028C6
:10000800FE00030E83120313A7000408A8000A08C1
:10001800A9007F08AA001C281128773084007D30A9
:10002800EF218313353084004130EF218301CB2841
:100038008C1EBE28F72183120313A000A1012008FB
:10004800FB002108FC0008308506FE307B067C0496
:10005800031D3028BD01BE013D083E040319B42824
:100068003F0840040319AE280130BF020030031CCA
:10007800C003C00277087804031D47287C08F800ED
:100088007B08F700B428770E0F39F900780EF0399D
:10009800F904780E0F39FA007B087C0403197928D3
:1000A8007908A00003300310A00DFF3E031D572858
:1000B8000310200DFF3A013E7707A100A10A013085
:1000C800A2000030A3006B280310A20DA30DA10B02
:1000D80068287908A4002407353E84002208831381
:1000E8008004840A23088004A6287908A000033025
:1000F8000310A00DFF3E031D7C280310200DFF3ABE
:10010800013E7707A100A10A0130A2000030A30038
:1001180090280310A20DA30DA10B8D2822082304FB
:10012800031D9828013099280030A400A5017908FA
:10013800A6002607353E8400240883138005840A18
:1001480025088005F701F8013F084004031DB4287D
:100158005221B4287C0883120313C0007B08BF0017
:100168007B0A7C04031DBE28013083120313BD00E3
:100178000030BE00831203132A08FF0029088A00F2
:1001880028088400270E8300FE0E7E0E0900073023
:10019800831203139F001030831603138500831204
:1001A80003138511D7218B170B17403083120313C4
:1001B800AB000030AC00B42183120313051EE02805
:1001C8001A3083120313B2005E30B1006E30B000F3
:1001D800B00BEC28B10BEC28B20BEC2883120313FC
:1001E800051E51298B138B17BF01C001B301B40140
:1001F8003408803AFF0080307F02031D052904304F
:100208003302031836298312031385150730831226
:100218000313B2005830B1005930B000B00B1229A6
:10022800B10B1229B20B12290000831203133308F1
:10023800B0003007353E840083138001840A8001B2
:1002480085110130B3070318B40A0030B407340825
:10025800803AFF0080307F02031D342904303302C6
:10026800031C0729F701F80183120313BD01BE011E
:100278004030AB000030AC00B42166308312031369
:10028800B2007630B100C030B000B00B4929B10BD4
:100298004929B20B49295029E0281028F301F40113
:1002A8007408803AFF0080307F02031D5D29043006
:1002B80073020318AF29F501F6017608803AFF00AA
:1002C80080307F02031D6A291030750203189E29A9
:1002D8007308F0007007353E840083130008F100AE
:1002E800840A0008F2007503FF3A103E013E7F2998
:1002F8000310F20CF10CFF3E031D7C29711C8829A8
:100308008312031305148B29831203130510851414
:1003180085100130F5070318F60A0030F60776084D
:10032800803AFF0080307F02031D9C29103075023F
:10033800031C6C290130F3070318F40A0030F40792
:100348007408803AFF0080307F02031DAD29043015
:100358007302031C5F298312031305150511080096
:1003680083120313AE01AF012F08803AAD002C08A9
:10037800803A2D02031DC2292B082E020318D22908
:10038800831203130510851485102E08013EAE0054
:100398002F080318013E003EAF00B829831203134B
:1003A8000515051108004030831603139900181528
:1003B800181283120313981718169812831603132A
:1003C8000C128C16181383120313181383160313B5
:1003D80098129816080064008001840A040603191C
:1003E80000340406F02983120313981CFD291812FF
:0603F80018161A080800A7
:02400E004AFF67
:00000001FF
