:020000001028C6
:10000800FE00030EF1000408F2000A08F300831250
:1000180003137F08F4002D281128830175288316FF
:100028000313061186141930990018151812831233
:100038000313981718169812831603130C128C16AC
:1000480018138312031318138316031398129816A0
:1000580008008C1E3528981C3328181218161A0800
:100068006D20740883120313FF0073088A00720856
:100078008400710E8300FE0E7E0E090000308A0097
:100088000408840A82070034483465346C346C34BC
:100098006F34203457346F3472346C346434213400
:1000A8000034F700770884004220003A031908005A
:1000B80077088400422065200130F6007608F707AB
:1000C8005628F500831203130C1E6628750899003C
:1000D8000800F000831203130C1E6E2870089900A4
:0E00E80008001320013055208B170B177A28C3
:02400E0058FF59
:00000001FF
