:020000001028C6
:10000800FE00030E83120313C8000408C9000A087F
:10001800CA007F08CB00B32911288223CC00832390
:10002800CD008423CE008523CF008623D0008723EC
:10003800D1008823D2008923D3008A23D4008B23BC
:10004800D5008C23D6008D23D7008E23D8008F238C
:10005800D9009023DA009123DB009223DC0093235C
:10006800DD009423DE009523DF008313A030840095
:10007800B0309623603084006E3096238301A52A21
:1000880026308400A03083120313A0000408A100C6
:100098001030A2002008840083130008A300A00ADF
:1000A8002108840023088000A10AA20B4E280030F2
:1000B800F3000030F2000030F1000A30F00063086D
:1000C800F7006208F6006108F5006008F4004722AE
:1000D800710883120313B9007008B8003908F100D9
:1000E8003808F0000A30F2000030F300612370098C
:1000F80083120313A0007109A100A00A0319A10A21
:1001080060082007B60061080318610A2107B700D4
:100118003608A00020074C3E840083130008BA006C
:10012800840A0008BB00C001C1014108803AFF00F1
:1001380080307F02031DA228083040020318D92806
:10014800831203134003FF3A073EA000A00A3B08AE
:10015800A2003A08A100B328220DA20CA10CA00B02
:10016800B0280130831203132105A30000302205B3
:10017800A4004008A5002507263E84002308831311
:100188008000840A240880000130C0070318C10ACF
:100198000030C1074108803AFF0080307F02031D0C
:1001A800D72808304002031CA42883120313BC017B
:1001B800BD013D08803AFF0080307F02031DE6281C
:1001C80008303C0203181329831203133C03FF3A37
:1001D800A00020070E3E263E840083130008A100DD
:1001E800840A0008A200211CFD28831203130615A7
:1001F8000029831203130611861486100130BC07E8
:100208000318BD0A0030BD073D08803AFF00803062
:100218007F02031D112908303C02031CE8288312C1
:100228000313861586113808A00020074C3E840069
:1002380083130008BA00840A0008BB00C201C30186
:100248004308803AFF0080307F02031D2D290830C3
:10025800420203186429831203134203FF3A073E3C
:10026800A000A00A3B08A2003A08A1003E29220DDE
:10027800A20CA10CA00B3B2901308312031321050A
:10028800A30000302205A4004208A5002507263E49
:100298008400230883138000840A24088000013026
:1002A800C2070318C30A0030C3074308803AFF0097
:1002B80080307F02031D622908304202031C2F2967
:1002C80083120313BE01BF013F08803AFF0080304C
:1002D8007F02031D712908303E0203189E298312EC
:1002E80003133E03FF3AA00020070E3E263E84007B
:1002F80083130008A100840A0008A200211C882991
:100308008312031306158B2983120313061186140F
:1003180086100130BE070318BF0A0030BF073F0828
:10032800803AFF0080307F02031D9C2908303E027E
:10033800031C732983120313861586110030E3000A
:100348000030E2000030E1000030E0000030E7005B
:100358000030E6000030E5000030E40008008B1CA7
:10036800EB298B106C08013EEC006D080318013E68
:10037800003EED000130C4000030C5000030C6006A
:100388000030C7006408C40765080318650FCD2945
:10039800CE29C50766080318660FD329D429C607CE
:1003A80067080318670AC7074708E7004608E60012
:1003B8004508E5004408E40004306D0200300319E4
:1003C8006C02031CEB29EC01ED01103086060B1DB5
:1003D8002C2A0B110C3081000130EA070318EB0AB4
:1003E8000030EB0700306B02103003196A02031C5F
:1003F8002C2AEA01EB016708F3006608F200650899
:10040800F1006408F0000030F7000030F60000301A
:10041800F5003C30F400FD22700883120313C40079
:100428007108C5007208C6007308C7000A300310B7
:10043800C70CC60CC50CC40CFF3E031D1B2A47087D
:10044800E3004608E2004508E1004408E0004420D3
:10045800831203130C1C3C2AFF308F00051C372A1B
:100468006808063E382A06308E000C1001308506D2
:100478004B08FF004A088A0049088400480E830098
:10048800FE0E7E0E09000030FC000030FB0000303C
:10049800FA000030F900730872047104700403193B
:1004A8009C2AFD01FD0AF31B672A0130F80003109E
:1004B800F00DF10DF20DF30DF80B5B2A0130F80089
:1004C8007808FD07572A0130F8000310F90DFA0DD6
:1004D800FB0DFC0DF80B692A73087702031D7E2AB1
:1004E80072087602031D7E2A71087502031D7E2A92
:1004F80070087402031C8F2A7008F4027108031C28
:10050800710FF5027208031C720FF6027308031CC0
:10051800730FF702791401300310F30CF20CF10C8D
:10052800F00CFF3E031D902A0130FD02031D672ACF
:100538007C08F3007B08F2007A08F1007908F000E3
:1005480008000730831203139F002130831603131A
:100558008600023085008312031305108B170B17D2
:100568008B160B160B118B108316031381120112B5
:1005780081110114811401150C14831203130C103A
:10058800901210169015901010141015FF308F004F
:1005980006308E000C308100103083160313B8002B
:1005A8000030B9003908B1003808B0003C23831284
:1005B8000313851CDB2A3230E8070318E90A0030E8
:1005C800E90700306902C83003196802031CEE2AE3
:1005D800E801E901023083160313B7000430B600BE
:1005E800BA30B500B50BF62AB60BF62AB70BF62AC1
:1005F800DB2A0030FC000030FB000030FA0000303D
:10060800F900701C1B2B7408F907750803110318EF
:10061800013E031DFA07760803110318013E031D66
:10062800FB07770803110318013E031DFC0701307F
:10063800F8000310F40DF50DF60DF70DF80B1D2B52
:1006480001300310F30CF20CF10CF00CFF3E031D0B
:10065800252B7308720471047004031D052B7C0894
:10066800F3007B08F2007A08F1007908F00008002E
:1006780083160313B301B4013408803AB200310879
:10068800803A3202031D4A2B3008330203185C2BD0
:100698008312031306118614861083160313330876
:1006A800013EB30034080318013E003EB400402B5D
:1006B80083120313861586110800F401F501701CD6
:1006C8006B2B7208F4070318F50A7308F507013055
:1006D8000310F20DF30DFF3E031D6C2B01300310C8
:1006E800F10CF00CFF3E031D732B70087104031D01
:1006F800632B7508F1007408F00008007E3400349C
:1007080022340034BC340034B6340034E2340034CB
:10071800D6340034DE34003432340034FE3400344D
:10072800F234003464008001840A0406031900349A
:040738000406972BF1
:02400E0058FF59
:00000001FF
