:02000000D02FFF
:100A0A00D434093438349C340A345E342C345A349D
:100A1A00F8347434CC341534B43419344834C33407
:100A2A005434A03408349C34F401F501701C232D8D
:100A3A007208F4070318F50A7308F5070130031062
:100A4A00F20DF30DFF3E031D242D01300310F10CAE
:100A5A00F00CFF3E031D2B2D70087104031D1B2D86
:100A6A007508F1007408F0000800F301F401740835
:100A7A00803AF2007108803A7202031D462D70080E
:100A8A0073020318562D8312031306118614861057
:100A9A007308013EF30074080318013E003EF40097
:100AAA003C2D831203138615861108000130831228
:100ABA000313A0000030A1000130A2000030A300FF
:100ACA007908803AFA002308803A7A02031D6F2DCA
:100ADA0022087802031C8A2D831203132108F100CD
:100AEA002008F0007708F3007608F200192571084B
:100AFA0083120313A1007008A0002208013EA2007D
:100B0A0023080318013E003E642D831203132108B3
:100B1A00F7002008F6000800013083160313860048
:100B2A000730831203139F000430831603138500D2
:100B3A00303083120313E2000030E3006308F1004F
:100B4A006208F0003A2583120313061CA82D6508D3
:100B5A00AD006408AC002526831203132C08C100DB
:100B6A002D08C200C5261A30FD00F830FC00FC0B27
:100B7A00BC2DFD0BBC2D0000013083120313E407CA
:100B8A000318E50A0030E507A82D83120313A9010B
:100B9A00A51FD62DA409A509A40A0319A50AA90106
:100BAA00A90AA71FE12DA609A709A60A0319A70AD8
:100BBA000130FB007B08A906AA01AB012408250421
:100BCA000319182EA801A80AA51BF72D0130031036
:100BDA00A40DA50DFF3E031DEC2D0130FB007B0883
:100BEA00A807E92D01300310AA0DAB0DFF3E031D26
:100BFA00F82D25082702031D042E24082602031CAB
:100C0A000D2E2408A6022508031CA703A7022A14EE
:100C1A0001300310A50CA40CFF3E031D0E2E01305B
:100C2A00A802031DF72D29080319202EAA09AB09CA
:100C3A00AA0A0319AB0A2B08A5002A08A40008006F
:100C4A0083120313B301B401B501B601B701B801A8
:100C5A00B901BA01BB01BC01BD01BE012C082D04BA
:100C6A000319BE2EBF01C0014008803AFF00803040
:100C7A007F02031D422E06303F020318BE2E831246
:100C8A0003133F09AE004009AF00AE0A0319AF0AC9
:100C9A002E08053EF8002F080318013E003EF90011
:100CAA000A30F6000030F7005B2577088312031339
:100CBA00A5007608A4002D08A7002C08A600CA25BE
:100CCA00831203133F08B0003007333E8400240820
:100CDA0083138000840A250880003F09AE0040097A
:100CEA00AF00AE0A0319AF0A2E08053EF8002F0816
:100CFA000318013E003EF9000A30F6000030F70002
:100D0A005B25770883120313B2007608B100320814
:100D1A00F1003108F0003F08AE002E07333E840090
:100D2A0083130008F200840A0008F30019257009E9
:100D3A0083120313AF007109B000AF0A0319B00A96
:100D4A002C082F07AC002D0803182D0A3007AD0018
:100D5A000130BF070318C00A0030C0074008803AB4
:100D6A00FF0080307F02031DBC2E06303F02031CA9
:100D7A00442E333083120313AC000030AD00080058
:100D8A0083120313CA01CB01CC01CD01CE01CF01DD
:100D9A00D001D101D201D301D401D501D601D701A5
:100DAA00D801D9010530DC000030DD00DD1BCD2F74
:100DBA005D08C4005C08C3000310C30DC40D4308DA
:100DCA004107C50044080318440A4207C6004508FB
:100DDA0084008317461C83130008C7004707A03EF8
:100DEA00840083130008DA00840A0008DB005A082A
:100DFA005B040319872FE001E1016108803AFF00D3
:100E0A0080307F02031D0B2F083060020318872FE2
:100E1A00831203136009C3006109C400C30A0319DA
:100E2A00C40A4308073EF80044080318013E003E7E
:100E3A00F9000A30F6000030F7005B2577088312C4
:100E4A000313A5007608A4005B08A7005A08A600A9
:100E5A00CA25831203136008C50045074A3E840069
:100E6A00240883138000840A250880006009C300CF
:100E7A006109C400C30A0319C40A4308073EF800FB
:100E8A0044080318013E003EF9000A30F60000301B
:100E9A00F7005B25770883120313C9007608C80098
:100EAA004908F1004808F0006008C30043074A3EB9
:100EBA00840083130008F200840A0008F30019254D
:100ECA00700983120313C4007109C500C40A031907
:100EDA00C50A5A084407DA005B0803185B0A450783
:100EEA00DB000130E0070318E10A0030E10761087E
:100EFA00803AFF0080307F02031D852F0830600290
:100F0A00031C0D2F83120313DE01DF015F08803AF1
:100F1A00FF0080307F02031D942F08305E02031801
:100F2A00C12F831203135E08C30043074A3E84009D
:100F3A0083130008C400840A0008C500441CA92FB2
:100F4A00831203130615AC2F83120313061186149A
:100F5A0086105E08013EDE005F080318013E003E6F
:100F6A00DF005F08803AFF0080307F02031DBF2F39
:100F7A0008305E02031C962F831203135C08FF3E9F
:100F8A00DC005D080318013EFF3EDD00DD1FDD2E9B
:100F9A00861586110800831603130525A000062569
:100FAA00A1000725A2000825A3000925A4000A25F7
:100FBA00A5000B25A6000C25A7000D25A8000E25C7
:100FCA00A9000F25AA001025AB001125AC00122597
:100FDA00AD001325AE001425AF001525B000162567
:100FEA00B1001725B2001825B30083120313E401D8
:060FFA00E5018301912DC9
:02400E0058FF59
:00000001FF
