:02000000F62FD9
:100EF2000134003400340034F301F4017408803A00
:100F0200F2007108803A7202031D892F7008730281
:100F12000318992F8312031306118614861073087F
:100F2200013EF30074080318013E003EF4007F2FD7
:100F320083120313861586110800013083160313EA
:100F420086000730831203139F00043083160313B5
:100F52008500303083120313A4000030A500250859
:100F6200F1002408F0007D2783120313061CB52F1D
:100F72002508F6002408F500C8278230FC00DD3081
:100F8200FB00FB0BC22FFC0BC22FC72FB52FF901A1
:100F9200FA017A08803AF7007608803A7702031D50
:100FA200D42F750879020318E42F83120313061550
:100FB200861486107908013EF9007A080318013E6A
:100FC200003EFA00CA2F83120313861586114E3093
:100FD200F800EB30F700F70BEC2FF80BEC2F76084C
:100FE200F1007508F0007D2708007927A0007A2714
:0E0FF200A1007B27A2007C27A30083019E2F75
:02400E0058FF59
:00000001FF
